:020000040800F2
:10000000C0080020CD010008730500086B0500083A
:100010006F050008C30200086D0F00080000000013
:10002000000000000000000000000000590D000862
:10003000C702000800000000230600086D0E00083B
:10004000E7010008E7010008E7010008E7010008F0
:10005000E7010008E7010008E7010008E7010008E0
:10006000E7010008E7010008E7010008E7010008D0
:10007000E7010008E7010008E7010008E7010008C0
:10008000E7010008E7010008E7010008E7010008B0
:10009000E7010008E7010008E7010008C9020008BD
:1000A000E7010008E7010008E7010008E701000890
:1000B000E7010008E7010008E7010008E701000880
:1000C000E7010008E7010008E7010008E701000870
:1000D000E7010008D10E0008E7010008E701000869
:1000E000E7010008E7010008E7010008E701000850
:1000F000E7010008E7010008E7010008E701000840
:10010000E7010008E7010008E7010008E70100082F
:10011000E7010008E7010008E7010008E70100081F
:10012000E7010008E7010008E7010008E70100080F
:1001300000F002F800F03AF80AA090E8000C8244BF
:100140008344AAF10107DA4501D100F02FF8AFF29C
:10015000090EBAE80F0013F0010F18BFFB1A43F0A5
:100160000103184798110000B8110000103A24BF8D
:1001700078C878C1FAD8520724BF30C830C144BF0C
:1001800004680C607047000000230024002500264E
:10019000103A28BF78C1FBD8520728BF30C148BFEA
:1001A0000B6070471FB51FBD10B510BD00F050F8B3
:1001B0001146FFF7F7FF00F0FDFE00F06EF803B404
:1001C000FFF7F2FF03BC00F075F800000948804714
:1001D00009480047FEE7FEE7FEE7FEE7FEE7FEE729
:1001E000FEE7FEE7FEE7FEE704480549054A064B41
:1001F00070470000710E000831010008C0020020A5
:10020000C0080020C0040020C004002010B5431C1A
:1002100002E010F8011B71B18107FAD14FF00132F1
:1002200002C88C1A8C4314EAC211F9D0C01A0A060B
:1002300003D0C01E10BDC01A10BD0A0401D0801E1C
:1002400010BD0902FCD0401E10BD704770477047BA
:10025000754600F02BF8AE4605006946534620F07F
:100260000700854618B020B5FFF7BEFFBDE8204067
:100270004FF000064FF000074FF000084FF0000B62
:1002800021F00701AC46ACE8C009ACE8C009ACE815
:10029000C009ACE8C0098D46704710B50446AFF3FD
:1002A00000802046BDE81040FFF789BF0048704736
:1002B0006002002001491820ABBEFEE726000200C4
:1002C000704700BFFEE7704710B54FF4007000F0B4
:1002D00025F838B101200B4908700B49087040021D
:1002E00000F016F84FF4807000F018F848B10120C3
:1002F000064908700020034908704FF4807000F030
:1003000007F810BD0100002018000020190000208F
:1003100001490860704700001404014001460020B4
:100320000022074B1B6803EA0102054B14331B68CC
:100330000B4013B10AB1012000E00020704700001B
:1003400000040140002123498279002A3AD00A465C
:10035000126803689A430B461A600A1D1268036804
:100360009A430B1D1A60027911440A6803681A4304
:100370000A60184A0832126803689A43154B08331A
:100380001A601A1D126803689A43124B0C331A60E4
:100390004279102A0ED11A1F126803681A430D4BB6
:1003A00008331A601A1D126803681A43094B0C338C
:1003B0001A600DE00749427911440A6803681A433C
:1003C0000A6005E0027911440A6803689A430A60EA
:1003D00070470000000401400549096821F0100140
:1003E000034A11601146096801431160704700001B
:1003F0000020024001460020034A106800F0380047
:1004000008431060704700000020024030B5002211
:100410008B071C0F0F2303FA04F20B4B8C1053F8BD
:1004200024309343084C8D1044F8253023468C101B
:1004300053F824308C07240F00FA04F42343024CB1
:100440008D1044F8253030BD080001402DE9F04101
:10045000024600250026002000230024002791F8F2
:1004600003C00CF00F0591F803C00CF0100CBCF1A8
:10047000000F03D091F802C04CEA050591F800C0C6
:10048000BCF1000F31D0146800202BE04FF0010CBC
:100490000CFA00F3B1F800C00CEA03069E4220D12A
:1004A00083004FF00F0C0CFA03F7BC4305FA03FC72
:1004B0004CEA040491F803C0BCF1280F06D14FF0B8
:1004C000010C0CFA00FCC2F814C00AE091F803C059
:1004D000BCF1480F05D14FF0010C0CFA00FCC2F83A
:1004E00010C0401C0828D1D31460B1F800C0BCF182
:1004F000FF0F34DD546800202EE000F1080C4FF0AF
:10050000010808FA0CF3B1F800C00CEA03069E4299
:1005100021D183004FF00F0C0CFA03F7BC4305FA0E
:1005200003FC4CEA040491F803C0BCF1280F05D188
:1005300000F1080C08FA0CF8C2F8148091F803C016
:10054000BCF1480F07D100F1080C4FF0010808FA80
:100550000CF8C2F81080401C0828CED35460BDE8C7
:10056000F081416170470161704700BFFEE700BF45
:10057000FEE7704770B5002100230F22C47804B352
:10058000154C246804F4E064C4F5E064210AC1F168
:100590000403CA40447804FA03F1847814402143E8
:1005A00009010E4C0678A155047804F01F050124BA
:1005B000AC4005786D11AD0005F1E025C5F80041AE
:1005C00009E0047804F01F050124AC40044D0678CE
:1005D000761145F8264070BD0CED00E000E400E027
:1005E00080E100E002490143024A116070470000C7
:1005F0000000FA050CED00E008B54FF4A060FFF72D
:10060000F1FF17208DF8000002208DF80100002076
:100610008DF8020001208DF803006846FFF7AAFF5D
:1006200008BD70472DE9F04707464FF000093846EE
:10063000FFF7ECFD00F0FF09C9F10C0000F0FF0A24
:100640004FF0000818E000250FE038782038C0EBA4
:10065000C00016490844405D08EB0A01C1EBC10126
:10066000134A11444855681CC5B2072DEDDB7F1CA9
:1006700008F1010000F0FF08C845E4DB002410E0A9
:1006800000260BE0C6EBC60009490844005D04EBF8
:100690004401084A02EB81018855761C0C2EF1DBDF
:1006A000641C072CECDBBDE8F08700005C10000840
:1006B000DA000020860000200EB50121192000F08C
:1006C0001DFA02208DF80A0010208DF80B0008207A
:1006D000ADF8080002A95248FFF7B8FE02208DF8D5
:1006E0000A0010208DF80B000420ADF8080002A9C4
:1006F0004B48FFF7ABFE02208DF80A0010208DF862
:100700000B000220ADF8080002A94548FFF79EFE45
:1007100002208DF80A0010208DF80B000120ADF8A2
:10072000080002A93E48FFF791FE02208DF80A005A
:1007300010208DF80B008002ADF8080002A939489E
:10074000FFF784FE4FF480413648FFF70CFF02208C
:100750008DF80A0010208DF80B00C002ADF80800DB
:1007600002A93048FFF772FE4FF400412D48FFF711
:10077000FAFE03208DF80A0010208DF80B00ADF86A
:10078000080002A92648FFF761FE03208DF80A0041
:1007900004208DF80B00C001ADF8080002A9214823
:1007A000FFF754FE00208DF804004FF40070009015
:1007B00010208DF8050001208DF806006846FFF72F
:1007C000C1FD09210120FFF721FE4FF40070FFF762
:1007D0009FFD03208DF80A0048208DF80B004FF490
:1007E0008070ADF8080002A90E48FFF72FFE002028
:1007F0008DF804004FF4807000900C208DF80500F7
:1008000001208DF806006846FFF79CFD08210120B5
:10081000FFF7FCFD4FF48070FFF77AFD0EBD00007E
:1008200000100140000C014000200249487008708F
:10083000087170477C00002010B5052492480078AC
:10084000B8B108219148FFF78CFE04218F48FFF7CB
:1008500088FE02218D48FFF784FE01218B48FFF7B7
:1008600080FE00208849087089480079401C88492A
:1008700008718848007890B1002086490870844843
:100880008079401C82498871002008714871824932
:10089000087082490870824908708249087081484E
:1008A0000078172808DD00207B4908707B49087014
:1008B0007B4908707B49087075488179E01D814249
:1008C00019DD10217148FFF74CFE00207049887136
:1008D00008714871087208216C48FFF742FE042134
:1008E0006A48FFF73EFE02216848FFF73AFE012101
:1008F0006648FFF736FE6648007961287EDA64486C
:10090000007963494979884278D061488079A0426A
:1009100074DD5F4800795E49487108460079624994
:100920005D4A1278895C884223D159488079401EFB
:10093000001B00EB40005D4901EB8000564909783F
:1009400000EBE10000785449097801F00702012129
:100950009140084020B108214C48FFF704FE03E015
:1009600008214A48FFF7FDFD4B480078401C4A49E2
:100970000870474801794E48484A1278805C8142A5
:1009800024D143488079401E001B00EB40004749BA
:1009900001EB800041490978032202EBE101405C50
:1009A0003E49097801F0070201219140084020B139
:1009B00004213648FFF7D7FD03E004213348FFF751
:1009C000D0FD36480078401C344908703048007922
:1009D0003849334A1278895C884226D12C4880797C
:1009E000401E001B00EB4000304901EB80002C4909
:1009F0000978062202EBE101405C00E042E0284970
:100A0000097801F0070201219140084020B102213C
:100A10001E48FFF7A8FD03E002211C48FFF7A1FDD7
:100A20001F480078401C1E49087019480179224867
:100A30001C4A1278805C814224D115488079401E7E
:100A4000001B00EB4000194901EB800015490978B3
:100A5000092202EBE101405C1249097801F007022A
:100A600001219140084020B101210848FFF77BFD9A
:100A700003E001210548FFF774FD0A480078401C97
:100A80000849087010BD0000180000200010014047
:100A90007C000020190000201A0000201B0000200C
:100AA0001C0000201D000020F80F00088600002018
:100AB000111000082A1000084310000829B1064A46
:100AC00052690243044B5A6104E0034A526982436B
:100AD000014B5A61704700000010024029B1064ADC
:100AE000D2690243044BDA6104E0034AD2698243CB
:100AF000014BDA61704700000010024029B1064A3C
:100B000092690243044B9A6104E0034A926982436A
:100B1000014B9A61704700000010024010B500F0D0
:100B200049F84FF4803000F09DF800F0F9F81F49C3
:100B3000087008460078012826D1002000F086F8C9
:100B4000002000F0C1F84FF4806000F0B1F80220FE
:100B5000FFF750FC1020FFF73FFC4FF4E0114FF47B
:100B6000803000F0C3F8012000F0BAF800BF39204F
:100B700000F046F80028FAD0022000F0C5F800BFC7
:100B800000F05CF80828FBD1012144F60D20FFF7A6
:100B9000B5FF01210648FFF7A1FF01218804FFF7F7
:100BA0009DFF01210846FFF789FF10BD00000020CE
:100BB000040002000F48006840F001000D49086081
:100BC000084640680C4908400A49486008460068E1
:100BD0000A490840074908600846006820F4802058
:100BE00008600846406820F4FE0048604FF41F008B
:100BF00088607047001002400000FFF8FFFFF6FE1B
:100C000010B501460022002300204A11012A02D11A
:100C1000094C236806E0022A02D1074C236A01E04E
:100C2000054C636A01F01F02012494401C400CB182
:100C3000012000E0002010BD001002400248406882
:100C400000F00C0070470000001002400146002038
:100C5000034A506820F0F0000843506070470000DD
:100C6000001002401149096821F480310F4A1160D7
:100C70001146096821F480211160B0F5803F03D04E
:100C8000B0F5802F0ED106E00849096841F48031A3
:100C9000064A116007E00549096841F4A021034AAA
:100CA000116000E000BF00BF70470000001002406C
:100CB00001460020034A506820F4E0600843506079
:100CC000704700000010024001460020034A5068AF
:100CD00020F4605040EAC1005060704700100240AC
:100CE00001490866704700000000424202460020A9
:100CF000044B586820F47C1042EA01031843014B6E
:100D0000586070470010024001460020034A5068B6
:100D100020F00300084350607047000000100240BC
:100D200038B5002000900024002500BF3120FFF7D7
:100D300067FF05460098401C00900098B0F5A06F32
:100D400001D0002DF2D03120FFF75AFF08B1012465
:100D500000E00024204638BD704710B500F002F8CE
:100D600010BD00000CB500200190009033480068D1
:100D700040F480303149086000BF3048006800F41A
:100D8000003000900198401C0190009818B901981B
:100D9000B0F5A06FF1D12948006800F4003010B11F
:100DA0000120009001E0002000900098012843D12C
:100DB0002348006840F01000214908600846006898
:100DC00020F0030008600846006840F00200086058
:100DD0001A48406819494860084640684860084613
:100DE000406840F4806048600846406820F47C1009
:100DF00048600846406840F4E810486008460068CB
:100E000040F08070086000BF0C48006800F000707F
:100E10000028F9D00948406820F0030007494860DD
:100E20000846406840F00200486000BF0348406840
:100E300000F00C000828F9D10CBD000000100240A1
:100E400000200240042808D14FF0E021096941F058
:100E500004014FF0E022116107E04FF0E021096941
:100E600021F004014FF0E02211617047704700004B
:100E700010B51348006840F00100114908600846A9
:100E80004068104908400E494860084600680E490D
:100E900008400B4908600846006820F4802008607C
:100EA0000846406820F4FE0048604FF41F00886048
:100EB000FFF753FF4FF000600449086010BD0000C9
:100EC000001002400000FFF8FFFFF6FE08ED00E012
:100ED00008B50821184800F037F810B1164800F09E
:100EE00040F81548008800F04000C0B11348017870
:100EF0000078401C114A10701148405C0E49091DD1
:100F00000880104600780F490978884207D10A48BE
:100F10000C30008820F0800007490C31088006481A
:100F2000008800F0200028B10348001D008840B26E
:100F3000009000BF08BD000000380140780000208C
:100F40002E0100207900002002460020B1F5007F2C
:100F500000D100BF13880B400BB1012000E000203E
:100F6000704701468888C0F30800704700BFFEE75D
:100F700010B56FF00400FFF765FF0A4800680A49E2
:100F8000B0FBF1F0094908700846007800EB400119
:100F9000C1EBC0104FF6FF7101EAC00004490880A0
:100FA00010BD00000400002000127A007400002030
:100FB00076000020FFF7B2FDFFF7DAFFFFF77CFBBA
:100FC000FFF71AFBFFF730FC10210748FFF7CBFAB9
:100FD00006A0FFF727FB05E006480078012801D1AD
:100FE000FFF72AFCF8E7000000100140312E3335EE
:100FF000204B4D00010000200105090D1115191DA0
:101000002125292D3135393D4145494D5155595DF0
:101010006102060A0E12161A1E22262A2E32363AAD
:101020003E42464A4E52565A5E6203070B0F131752
:101030001B1F23272B2F33373B3F43474B4F535720
:101040005B5F6304080C1014181C2024282C303417
:10105000383C4044484C5054585C606400000000E8
:101060000000000404040404000405050500000059
:10107000000A0A1F0A1F0A0A041E050E140F0403A1
:1010800013080402191806090502150916030201BE
:101090000000000004020101010204010204040432
:1010A0000201000A041F040A000004041F040400D3
:1010B000000000000302010000001F00000000000B
:1010C0000000000303001008040201000E111915AE
:1010D00013110E0406040404040E0E11100C020178
:1010E0001F0E11100C10110E080C0A091F08081F02
:1010F000010F1010110E0C02010F11110E1F10081C
:10110000040202020E11110E11110E0E11111E1009
:1011100008060003030003030000030300030201A9
:101120000804020102040800001F001F0000010261
:1011300004080402010E1110080400040E11101618
:1011400015150E0E11111F1111110F11110F111183
:101150000F0E11010101110E070911111109071FCD
:1011600001010F01011F1F01010F0101010E1101FA
:101170000119111E1111111F111111070202020292
:1011800002071C08080808090611090503050911CA
:101190000101010101011F111B151511111111117F
:1011A00013151911110E11111111110E0F11110F2B
:1011B0000101010E1111111509160F11110F050969
:1011C000110E11010E10110E1F0404040404041169
:1011D00011111111110E11111111110A0411111116
:1011E0001515150A11110A040A111111110A040426
:1011F00004041F10080402011F0701010101010777
:101200000001020408100007040404040407040A8F
:1012100011000000000000000000001F0102040097
:1012200000000000000E101E111E01010D1311110F
:101230000F000006090109061010161911111E00F1
:10124000000E111F010E040A0207020202001E1105
:10125000111E100E01010D131111110100010101E8
:101260000101040006040404030101090503050942
:101270000302020202020700000B15111111000007
:101280000D0B0909090000060909090600070909EB
:10129000070101000E09090E0808000005030101FD
:1012A0000100000E01060807020207020202020006
:1012B00000090909090E00001111110A04000011AA
:1012C0001115150A0000110A040A11000909090E76
:1012D000080600001F0804021F04020201020204A3
:1012E00002020202020202010202040202011609C3
:1012F0000000000000000000000000001C130008B7
:10130000000000207C0000006C0100089813000819
:101310007C00002044080000880100080000000054
:1013200000A24A04000000000000000001020304C3
:101330000607080900000000000000FFFFFFFFFF94
:10134000FFFFFFFFFFFFFFFFFFFFFFFFFFFFFFFFAD
:10135000FFFFFFFFFFFFFFFFFFFFFFFFFFFFFFFF9D
:10136000FFFFFFFFFFFFFFFFFFFFFFFFFFFFFFFF8D
:10137000FFFFFFFFFFFFFFFFFFFFFFFFFFFFFFFF7D
:10138000FFFFFFFFFFFFFFFFFFFFFFFFFFFFFF006C
:08139000000000000000000055
:0400000508000131BD
:00000001FF
